{
  "contractName": "Exchange",
  "abi": [
    {
      "inputs": [
        {
          "internalType": "address",
          "name": "_feeAccount",
          "type": "address"
        },
        {
          "internalType": "uint256",
          "name": "_feePercent",
          "type": "uint256"
        }
      ],
      "stateMutability": "nonpayable",
      "type": "constructor"
    },
    {
      "anonymous": false,
      "inputs": [
        {
          "indexed": false,
          "internalType": "uint256",
          "name": "_id",
          "type": "uint256"
        },
        {
          "indexed": false,
          "internalType": "address",
          "name": "_user",
          "type": "address"
        },
        {
          "indexed": false,
          "internalType": "address",
          "name": "_tokenGet",
          "type": "address"
        },
        {
          "indexed": false,
          "internalType": "uint256",
          "name": "_amountGet",
          "type": "uint256"
        },
        {
          "indexed": false,
          "internalType": "address",
          "name": "_tokenGive",
          "type": "address"
        },
        {
          "indexed": false,
          "internalType": "uint256",
          "name": "_amountGive",
          "type": "uint256"
        },
        {
          "indexed": false,
          "internalType": "uint256",
          "name": "_timestamp",
          "type": "uint256"
        }
      ],
      "name": "Cancel",
      "type": "event"
    },
    {
      "anonymous": false,
      "inputs": [
        {
          "indexed": true,
          "internalType": "address",
          "name": "_token",
          "type": "address"
        },
        {
          "indexed": true,
          "internalType": "address",
          "name": "_user",
          "type": "address"
        },
        {
          "indexed": false,
          "internalType": "uint256",
          "name": "_amount",
          "type": "uint256"
        },
        {
          "indexed": false,
          "internalType": "uint256",
          "name": "_balance",
          "type": "uint256"
        }
      ],
      "name": "Deposit",
      "type": "event"
    },
    {
      "anonymous": false,
      "inputs": [
        {
          "indexed": false,
          "internalType": "uint256",
          "name": "_id",
          "type": "uint256"
        },
        {
          "indexed": false,
          "internalType": "address",
          "name": "_user",
          "type": "address"
        },
        {
          "indexed": false,
          "internalType": "address",
          "name": "_tokenGet",
          "type": "address"
        },
        {
          "indexed": false,
          "internalType": "uint256",
          "name": "_amountGet",
          "type": "uint256"
        },
        {
          "indexed": false,
          "internalType": "address",
          "name": "_tokenGive",
          "type": "address"
        },
        {
          "indexed": false,
          "internalType": "uint256",
          "name": "_amountGive",
          "type": "uint256"
        },
        {
          "indexed": false,
          "internalType": "uint256",
          "name": "_timestamp",
          "type": "uint256"
        }
      ],
      "name": "Order",
      "type": "event"
    },
    {
      "anonymous": false,
      "inputs": [
        {
          "indexed": false,
          "internalType": "uint256",
          "name": "_id",
          "type": "uint256"
        },
        {
          "indexed": false,
          "internalType": "address",
          "name": "_user",
          "type": "address"
        },
        {
          "indexed": false,
          "internalType": "address",
          "name": "_tokenGet",
          "type": "address"
        },
        {
          "indexed": false,
          "internalType": "uint256",
          "name": "_amountGet",
          "type": "uint256"
        },
        {
          "indexed": false,
          "internalType": "address",
          "name": "_tokenGive",
          "type": "address"
        },
        {
          "indexed": false,
          "internalType": "uint256",
          "name": "_amountGive",
          "type": "uint256"
        },
        {
          "indexed": false,
          "internalType": "uint256",
          "name": "_feeAmount",
          "type": "uint256"
        },
        {
          "indexed": false,
          "internalType": "address",
          "name": "_userFill",
          "type": "address"
        },
        {
          "indexed": false,
          "internalType": "uint256",
          "name": "_timestamp",
          "type": "uint256"
        }
      ],
      "name": "Trade",
      "type": "event"
    },
    {
      "anonymous": false,
      "inputs": [
        {
          "indexed": true,
          "internalType": "address",
          "name": "_token",
          "type": "address"
        },
        {
          "indexed": true,
          "internalType": "address",
          "name": "_user",
          "type": "address"
        },
        {
          "indexed": false,
          "internalType": "uint256",
          "name": "_amount",
          "type": "uint256"
        },
        {
          "indexed": false,
          "internalType": "uint256",
          "name": "_balance",
          "type": "uint256"
        }
      ],
      "name": "Withdraw",
      "type": "event"
    },
    {
      "stateMutability": "nonpayable",
      "type": "fallback"
    },
    {
      "inputs": [],
      "name": "feeAccount",
      "outputs": [
        {
          "internalType": "address",
          "name": "",
          "type": "address"
        }
      ],
      "stateMutability": "view",
      "type": "function",
      "constant": true
    },
    {
      "inputs": [],
      "name": "feePercent",
      "outputs": [
        {
          "internalType": "uint256",
          "name": "",
          "type": "uint256"
        }
      ],
      "stateMutability": "view",
      "type": "function",
      "constant": true
    },
    {
      "inputs": [
        {
          "internalType": "uint256",
          "name": "",
          "type": "uint256"
        }
      ],
      "name": "orderCancelled",
      "outputs": [
        {
          "internalType": "bool",
          "name": "",
          "type": "bool"
        }
      ],
      "stateMutability": "view",
      "type": "function",
      "constant": true
    },
    {
      "inputs": [],
      "name": "orderCount",
      "outputs": [
        {
          "internalType": "uint256",
          "name": "",
          "type": "uint256"
        }
      ],
      "stateMutability": "view",
      "type": "function",
      "constant": true
    },
    {
      "inputs": [
        {
          "internalType": "uint256",
          "name": "",
          "type": "uint256"
        }
      ],
      "name": "orderFilled",
      "outputs": [
        {
          "internalType": "bool",
          "name": "",
          "type": "bool"
        }
      ],
      "stateMutability": "view",
      "type": "function",
      "constant": true
    },
    {
      "inputs": [
        {
          "internalType": "uint256",
          "name": "",
          "type": "uint256"
        }
      ],
      "name": "orders",
      "outputs": [
        {
          "internalType": "uint256",
          "name": "id",
          "type": "uint256"
        },
        {
          "internalType": "address",
          "name": "user",
          "type": "address"
        },
        {
          "internalType": "address",
          "name": "tokenGet",
          "type": "address"
        },
        {
          "internalType": "uint256",
          "name": "amountGet",
          "type": "uint256"
        },
        {
          "internalType": "address",
          "name": "tokenGive",
          "type": "address"
        },
        {
          "internalType": "uint256",
          "name": "amountGive",
          "type": "uint256"
        },
        {
          "internalType": "uint256",
          "name": "timestamp",
          "type": "uint256"
        }
      ],
      "stateMutability": "view",
      "type": "function",
      "constant": true
    },
    {
      "inputs": [
        {
          "internalType": "address",
          "name": "",
          "type": "address"
        },
        {
          "internalType": "address",
          "name": "",
          "type": "address"
        }
      ],
      "name": "tokens",
      "outputs": [
        {
          "internalType": "uint256",
          "name": "",
          "type": "uint256"
        }
      ],
      "stateMutability": "view",
      "type": "function",
      "constant": true
    },
    {
      "inputs": [],
      "name": "depositEther",
      "outputs": [],
      "stateMutability": "payable",
      "type": "function",
      "payable": true
    },
    {
      "inputs": [
        {
          "internalType": "uint256",
          "name": "_amount",
          "type": "uint256"
        }
      ],
      "name": "withdrawEther",
      "outputs": [],
      "stateMutability": "nonpayable",
      "type": "function"
    },
    {
      "inputs": [
        {
          "internalType": "address",
          "name": "_token",
          "type": "address"
        },
        {
          "internalType": "uint256",
          "name": "_amount",
          "type": "uint256"
        }
      ],
      "name": "depositToken",
      "outputs": [],
      "stateMutability": "nonpayable",
      "type": "function"
    },
    {
      "inputs": [
        {
          "internalType": "address",
          "name": "_token",
          "type": "address"
        },
        {
          "internalType": "uint256",
          "name": "_amount",
          "type": "uint256"
        }
      ],
      "name": "withdrawToken",
      "outputs": [],
      "stateMutability": "nonpayable",
      "type": "function"
    },
    {
      "inputs": [
        {
          "internalType": "address",
          "name": "_token",
          "type": "address"
        },
        {
          "internalType": "address",
          "name": "_user",
          "type": "address"
        }
      ],
      "name": "balanceOf",
      "outputs": [
        {
          "internalType": "uint256",
          "name": "",
          "type": "uint256"
        }
      ],
      "stateMutability": "view",
      "type": "function",
      "constant": true
    },
    {
      "inputs": [
        {
          "internalType": "address",
          "name": "_tokenGet",
          "type": "address"
        },
        {
          "internalType": "uint256",
          "name": "_amountGet",
          "type": "uint256"
        },
        {
          "internalType": "address",
          "name": "_tokenGive",
          "type": "address"
        },
        {
          "internalType": "uint256",
          "name": "_amountGive",
          "type": "uint256"
        }
      ],
      "name": "makeOrder",
      "outputs": [],
      "stateMutability": "nonpayable",
      "type": "function"
    },
    {
      "inputs": [
        {
          "internalType": "uint256",
          "name": "_id",
          "type": "uint256"
        }
      ],
      "name": "cancelOrder",
      "outputs": [],
      "stateMutability": "nonpayable",
      "type": "function"
    },
    {
      "inputs": [
        {
          "internalType": "uint256",
          "name": "_id",
          "type": "uint256"
        }
      ],
      "name": "fillOrder",
      "outputs": [],
      "stateMutability": "nonpayable",
      "type": "function"
    }
  ],
  "bytecode": "0x60806040523480156200001157600080fd5b506040516200225b3803806200225b8339818101604052810190620000379190620000b4565b816000806101000a81548173ffffffffffffffffffffffffffffffffffffffff021916908373ffffffffffffffffffffffffffffffffffffffff16021790555080600181905550505062000167565b600081519050620000978162000133565b92915050565b600081519050620000ae816200014d565b92915050565b60008060408385031215620000c857600080fd5b6000620000d88582860162000086565b9250506020620000eb858286016200009d565b9150509250929050565b6000620001028262000109565b9050919050565b600073ffffffffffffffffffffffffffffffffffffffff82169050919050565b6000819050919050565b6200013e81620000f5565b81146200014a57600080fd5b50565b620001588162000129565b81146200016457600080fd5b50565b6120e480620001776000396000f3fe6080604052600436106100ec5760003560e01c806367b830ad1161008a5780639e281a98116100595780639e281a98146102d1578063a85c38ef146102fa578063e9c189661461033d578063f7888aec1461037a576100ed565b806367b830ad1461024a5780637fd6f15c1461027357806398ea5fca1461029e5780639a5c90aa146102a8576100ed565b80634a93e0da116100c65780634a93e0da1461017c578063508493bc146101b9578063514fcac7146101f657806365e17c9d1461021f576100ed565b80632453ffa8146100ff578063338b5dea1461012a5780633bed33ce14610153576100ed565b5b3480156100f957600080fd5b50600080fd5b34801561010b57600080fd5b506101146103b7565b6040516101219190611d6e565b60405180910390f35b34801561013657600080fd5b50610151600480360381019061014c9190611bba565b6103bd565b005b34801561015f57600080fd5b5061017a60048036038101906101759190611c82565b610685565b005b34801561018857600080fd5b506101a3600480360381019061019e9190611c82565b61094b565b6040516101b09190611d53565b60405180910390f35b3480156101c557600080fd5b506101e060048036038101906101db9190611b7e565b61096b565b6040516101ed9190611d6e565b60405180910390f35b34801561020257600080fd5b5061021d60048036038101906102189190611c82565b610990565b005b34801561022b57600080fd5b50610234610ada565b6040516102419190611cd8565b60405180910390f35b34801561025657600080fd5b50610271600480360381019061026c9190611c82565b610afe565b005b34801561027f57600080fd5b50610288610c40565b6040516102959190611d6e565b60405180910390f35b6102a6610c46565b005b3480156102b457600080fd5b506102cf60048036038101906102ca9190611bf6565b610e3b565b005b3480156102dd57600080fd5b506102f860048036038101906102f39190611bba565b611034565b005b34801561030657600080fd5b50610321600480360381019061031c9190611c82565b611383565b6040516103349796959493929190611d89565b60405180910390f35b34801561034957600080fd5b50610364600480360381019061035f9190611c82565b611425565b6040516103719190611d53565b60405180910390f35b34801561038657600080fd5b506103a1600480360381019061039c9190611b7e565b611445565b6040516103ae9190611d6e565b60405180910390f35b60045481565b600073ffffffffffffffffffffffffffffffffffffffff168273ffffffffffffffffffffffffffffffffffffffff1614156103f757600080fd5b8173ffffffffffffffffffffffffffffffffffffffff166323b872dd3330846040518463ffffffff1660e01b815260040161043493929190611cf3565b602060405180830381600087803b15801561044e57600080fd5b505af1158015610462573d6000803e3d6000fd5b505050506040513d601f19601f820116820180604052508101906104869190611c59565b61048f57600080fd5b61051e81600260008573ffffffffffffffffffffffffffffffffffffffff1673ffffffffffffffffffffffffffffffffffffffff16815260200190815260200160002060003373ffffffffffffffffffffffffffffffffffffffff1673ffffffffffffffffffffffffffffffffffffffff168152602001908152602001600020546114cc90919063ffffffff16565b600260008473ffffffffffffffffffffffffffffffffffffffff1673ffffffffffffffffffffffffffffffffffffffff16815260200190815260200160002060003373ffffffffffffffffffffffffffffffffffffffff1673ffffffffffffffffffffffffffffffffffffffff168152602001908152602001600020819055503373ffffffffffffffffffffffffffffffffffffffff168273ffffffffffffffffffffffffffffffffffffffff167fdcbc1c05240f31ff3ad067ef1ee35ce4997762752e3a095284754544f4c709d783600260008773ffffffffffffffffffffffffffffffffffffffff1673ffffffffffffffffffffffffffffffffffffffff16815260200190815260200160002060003373ffffffffffffffffffffffffffffffffffffffff1673ffffffffffffffffffffffffffffffffffffffff16815260200190815260200160002054604051610679929190611e85565b60405180910390a35050565b80600260008073ffffffffffffffffffffffffffffffffffffffff1673ffffffffffffffffffffffffffffffffffffffff16815260200190815260200160002060003373ffffffffffffffffffffffffffffffffffffffff1673ffffffffffffffffffffffffffffffffffffffff16815260200190815260200160002054101561070e57600080fd5b61079d81600260008073ffffffffffffffffffffffffffffffffffffffff1673ffffffffffffffffffffffffffffffffffffffff16815260200190815260200160002060003373ffffffffffffffffffffffffffffffffffffffff1673ffffffffffffffffffffffffffffffffffffffff168152602001908152602001600020546114e290919063ffffffff16565b600260008073ffffffffffffffffffffffffffffffffffffffff1673ffffffffffffffffffffffffffffffffffffffff16815260200190815260200160002060003373ffffffffffffffffffffffffffffffffffffffff1673ffffffffffffffffffffffffffffffffffffffff168152602001908152602001600020819055503373ffffffffffffffffffffffffffffffffffffffff166108fc829081150290604051600060405180830381858888f19350505050158015610863573d6000803e3d6000fd5b503373ffffffffffffffffffffffffffffffffffffffff16600073ffffffffffffffffffffffffffffffffffffffff167ff341246adaac6f497bc2a656f546ab9e182111d630394f0c57c710a59a2cb56783600260008073ffffffffffffffffffffffffffffffffffffffff1673ffffffffffffffffffffffffffffffffffffffff16815260200190815260200160002060003373ffffffffffffffffffffffffffffffffffffffff1673ffffffffffffffffffffffffffffffffffffffff16815260200190815260200160002054604051610940929190611e85565b60405180910390a350565b60066020528060005260406000206000915054906101000a900460ff1681565b6002602052816000526040600020602052806000526040600020600091509150505481565b60006003600083815260200190815260200160002090503373ffffffffffffffffffffffffffffffffffffffff168160010160009054906101000a900473ffffffffffffffffffffffffffffffffffffffff1673ffffffffffffffffffffffffffffffffffffffff1614610a0357600080fd5b81816000015414610a1357600080fd5b60016005600084815260200190815260200160002060006101000a81548160ff0219169083151502179055507f77de1da0be5f2d3b110d05c6694e5c4ff2d9da7cd23d84353ecf78c7b5acec618160000154338360020160009054906101000a900473ffffffffffffffffffffffffffffffffffffffff1684600301548560040160009054906101000a900473ffffffffffffffffffffffffffffffffffffffff16866005015442604051610ace9796959493929190611d89565b60405180910390a15050565b60008054906101000a900473ffffffffffffffffffffffffffffffffffffffff1681565b600081118015610b1057506004548111155b610b1957600080fd5b6006600082815260200190815260200160002060009054906101000a900460ff1615610b4457600080fd5b6005600082815260200190815260200160002060009054906101000a900460ff1615610b6f57600080fd5b6000600360008381526020019081526020016000209050610c0c81600001548260010160009054906101000a900473ffffffffffffffffffffffffffffffffffffffff168360020160009054906101000a900473ffffffffffffffffffffffffffffffffffffffff1684600301548560040160009054906101000a900473ffffffffffffffffffffffffffffffffffffffff1686600501546114f8565b6001600660008360000154815260200190815260200160002060006101000a81548160ff0219169083151502179055505050565b60015481565b610cd534600260008073ffffffffffffffffffffffffffffffffffffffff1673ffffffffffffffffffffffffffffffffffffffff16815260200190815260200160002060003373ffffffffffffffffffffffffffffffffffffffff1673ffffffffffffffffffffffffffffffffffffffff168152602001908152602001600020546114cc90919063ffffffff16565b600260008073ffffffffffffffffffffffffffffffffffffffff1673ffffffffffffffffffffffffffffffffffffffff16815260200190815260200160002060003373ffffffffffffffffffffffffffffffffffffffff1673ffffffffffffffffffffffffffffffffffffffff168152602001908152602001600020819055503373ffffffffffffffffffffffffffffffffffffffff16600073ffffffffffffffffffffffffffffffffffffffff167fdcbc1c05240f31ff3ad067ef1ee35ce4997762752e3a095284754544f4c709d734600260008073ffffffffffffffffffffffffffffffffffffffff1673ffffffffffffffffffffffffffffffffffffffff16815260200190815260200160002060003373ffffffffffffffffffffffffffffffffffffffff1673ffffffffffffffffffffffffffffffffffffffff16815260200190815260200160002054604051610e31929190611e85565b60405180910390a3565b610e5160016004546114cc90919063ffffffff16565b60048190555060004290506040518060e0016040528060045481526020013373ffffffffffffffffffffffffffffffffffffffff1681526020018673ffffffffffffffffffffffffffffffffffffffff1681526020018581526020018473ffffffffffffffffffffffffffffffffffffffff168152602001838152602001828152506003600060045481526020019081526020016000206000820151816000015560208201518160010160006101000a81548173ffffffffffffffffffffffffffffffffffffffff021916908373ffffffffffffffffffffffffffffffffffffffff16021790555060408201518160020160006101000a81548173ffffffffffffffffffffffffffffffffffffffff021916908373ffffffffffffffffffffffffffffffffffffffff1602179055506060820151816003015560808201518160040160006101000a81548173ffffffffffffffffffffffffffffffffffffffff021916908373ffffffffffffffffffffffffffffffffffffffff16021790555060a0820151816005015560c082015181600601559050507f9d33853d43e3607b4cc01fdc78338ff2dca6fef7db9232dae6d3eb55fbc3b1096004543387878787876040516110259796959493929190611d89565b60405180910390a15050505050565b600073ffffffffffffffffffffffffffffffffffffffff168273ffffffffffffffffffffffffffffffffffffffff16141561106e57600080fd5b80600260008473ffffffffffffffffffffffffffffffffffffffff1673ffffffffffffffffffffffffffffffffffffffff16815260200190815260200160002060003373ffffffffffffffffffffffffffffffffffffffff1673ffffffffffffffffffffffffffffffffffffffff1681526020019081526020016000205410156110f757600080fd5b8173ffffffffffffffffffffffffffffffffffffffff1663a9059cbb33836040518363ffffffff1660e01b8152600401611132929190611d2a565b602060405180830381600087803b15801561114c57600080fd5b505af1158015611160573d6000803e3d6000fd5b505050506040513d601f19601f820116820180604052508101906111849190611c59565b61118d57600080fd5b61121c81600260008573ffffffffffffffffffffffffffffffffffffffff1673ffffffffffffffffffffffffffffffffffffffff16815260200190815260200160002060003373ffffffffffffffffffffffffffffffffffffffff1673ffffffffffffffffffffffffffffffffffffffff168152602001908152602001600020546114e290919063ffffffff16565b600260008473ffffffffffffffffffffffffffffffffffffffff1673ffffffffffffffffffffffffffffffffffffffff16815260200190815260200160002060003373ffffffffffffffffffffffffffffffffffffffff1673ffffffffffffffffffffffffffffffffffffffff168152602001908152602001600020819055503373ffffffffffffffffffffffffffffffffffffffff168273ffffffffffffffffffffffffffffffffffffffff167ff341246adaac6f497bc2a656f546ab9e182111d630394f0c57c710a59a2cb56783600260008773ffffffffffffffffffffffffffffffffffffffff1673ffffffffffffffffffffffffffffffffffffffff16815260200190815260200160002060003373ffffffffffffffffffffffffffffffffffffffff1673ffffffffffffffffffffffffffffffffffffffff16815260200190815260200160002054604051611377929190611e85565b60405180910390a35050565b60036020528060005260406000206000915090508060000154908060010160009054906101000a900473ffffffffffffffffffffffffffffffffffffffff16908060020160009054906101000a900473ffffffffffffffffffffffffffffffffffffffff16908060030154908060040160009054906101000a900473ffffffffffffffffffffffffffffffffffffffff16908060050154908060060154905087565b60056020528060005260406000206000915054906101000a900460ff1681565b6000600260008473ffffffffffffffffffffffffffffffffffffffff1673ffffffffffffffffffffffffffffffffffffffff16815260200190815260200160002060008373ffffffffffffffffffffffffffffffffffffffff1673ffffffffffffffffffffffffffffffffffffffff16815260200190815260200160002054905092915050565b600081836114da9190611eae565b905092915050565b600081836114f09190611f8f565b905092915050565b6000611522606461151460015485611b1390919063ffffffff16565b611b2990919063ffffffff16565b90506115c561153a82866114cc90919063ffffffff16565b600260008873ffffffffffffffffffffffffffffffffffffffff1673ffffffffffffffffffffffffffffffffffffffff16815260200190815260200160002060003373ffffffffffffffffffffffffffffffffffffffff1673ffffffffffffffffffffffffffffffffffffffff168152602001908152602001600020546114e290919063ffffffff16565b600260008773ffffffffffffffffffffffffffffffffffffffff1673ffffffffffffffffffffffffffffffffffffffff16815260200190815260200160002060003373ffffffffffffffffffffffffffffffffffffffff1673ffffffffffffffffffffffffffffffffffffffff168152602001908152602001600020819055506116d484600260008873ffffffffffffffffffffffffffffffffffffffff1673ffffffffffffffffffffffffffffffffffffffff16815260200190815260200160002060008973ffffffffffffffffffffffffffffffffffffffff1673ffffffffffffffffffffffffffffffffffffffff168152602001908152602001600020546114cc90919063ffffffff16565b600260008773ffffffffffffffffffffffffffffffffffffffff1673ffffffffffffffffffffffffffffffffffffffff16815260200190815260200160002060008873ffffffffffffffffffffffffffffffffffffffff1673ffffffffffffffffffffffffffffffffffffffff1681526020019081526020016000208190555061180481600260008873ffffffffffffffffffffffffffffffffffffffff1673ffffffffffffffffffffffffffffffffffffffff16815260200190815260200160002060008060009054906101000a900473ffffffffffffffffffffffffffffffffffffffff1673ffffffffffffffffffffffffffffffffffffffff1673ffffffffffffffffffffffffffffffffffffffff168152602001908152602001600020546114cc90919063ffffffff16565b600260008773ffffffffffffffffffffffffffffffffffffffff1673ffffffffffffffffffffffffffffffffffffffff16815260200190815260200160002060008060009054906101000a900473ffffffffffffffffffffffffffffffffffffffff1673ffffffffffffffffffffffffffffffffffffffff1673ffffffffffffffffffffffffffffffffffffffff1681526020019081526020016000208190555061193482600260008673ffffffffffffffffffffffffffffffffffffffff1673ffffffffffffffffffffffffffffffffffffffff16815260200190815260200160002060008973ffffffffffffffffffffffffffffffffffffffff1673ffffffffffffffffffffffffffffffffffffffff168152602001908152602001600020546114e290919063ffffffff16565b600260008573ffffffffffffffffffffffffffffffffffffffff1673ffffffffffffffffffffffffffffffffffffffff16815260200190815260200160002060008873ffffffffffffffffffffffffffffffffffffffff1673ffffffffffffffffffffffffffffffffffffffff16815260200190815260200160002081905550611a4382600260008673ffffffffffffffffffffffffffffffffffffffff1673ffffffffffffffffffffffffffffffffffffffff16815260200190815260200160002060003373ffffffffffffffffffffffffffffffffffffffff1673ffffffffffffffffffffffffffffffffffffffff168152602001908152602001600020546114cc90919063ffffffff16565b600260008573ffffffffffffffffffffffffffffffffffffffff1673ffffffffffffffffffffffffffffffffffffffff16815260200190815260200160002060003373ffffffffffffffffffffffffffffffffffffffff1673ffffffffffffffffffffffffffffffffffffffff168152602001908152602001600020819055507fa1930d8bfb518dec0a0ee16384c434b1c7a1aebb36f462378ae1bf2f812ccb37878787878787873342604051611b0299989796959493929190611df8565b60405180910390a150505050505050565b60008183611b219190611f35565b905092915050565b60008183611b379190611f04565b905092915050565b600081359050611b4e81612069565b92915050565b600081519050611b6381612080565b92915050565b600081359050611b7881612097565b92915050565b60008060408385031215611b9157600080fd5b6000611b9f85828601611b3f565b9250506020611bb085828601611b3f565b9150509250929050565b60008060408385031215611bcd57600080fd5b6000611bdb85828601611b3f565b9250506020611bec85828601611b69565b9150509250929050565b60008060008060808587031215611c0c57600080fd5b6000611c1a87828801611b3f565b9450506020611c2b87828801611b69565b9350506040611c3c87828801611b3f565b9250506060611c4d87828801611b69565b91505092959194509250565b600060208284031215611c6b57600080fd5b6000611c7984828501611b54565b91505092915050565b600060208284031215611c9457600080fd5b6000611ca284828501611b69565b91505092915050565b611cb481611fc3565b82525050565b611cc381611fd5565b82525050565b611cd281612001565b82525050565b6000602082019050611ced6000830184611cab565b92915050565b6000606082019050611d086000830186611cab565b611d156020830185611cab565b611d226040830184611cc9565b949350505050565b6000604082019050611d3f6000830185611cab565b611d4c6020830184611cc9565b9392505050565b6000602082019050611d686000830184611cba565b92915050565b6000602082019050611d836000830184611cc9565b92915050565b600060e082019050611d9e600083018a611cc9565b611dab6020830189611cab565b611db86040830188611cab565b611dc56060830187611cc9565b611dd26080830186611cab565b611ddf60a0830185611cc9565b611dec60c0830184611cc9565b98975050505050505050565b600061012082019050611e0e600083018c611cc9565b611e1b602083018b611cab565b611e28604083018a611cab565b611e356060830189611cc9565b611e426080830188611cab565b611e4f60a0830187611cc9565b611e5c60c0830186611cc9565b611e6960e0830185611cab565b611e77610100830184611cc9565b9a9950505050505050505050565b6000604082019050611e9a6000830185611cc9565b611ea76020830184611cc9565b9392505050565b6000611eb982612001565b9150611ec483612001565b9250827fffffffffffffffffffffffffffffffffffffffffffffffffffffffffffffffff03821115611ef957611ef861200b565b5b828201905092915050565b6000611f0f82612001565b9150611f1a83612001565b925082611f2a57611f2961203a565b5b828204905092915050565b6000611f4082612001565b9150611f4b83612001565b9250817fffffffffffffffffffffffffffffffffffffffffffffffffffffffffffffffff0483118215151615611f8457611f8361200b565b5b828202905092915050565b6000611f9a82612001565b9150611fa583612001565b925082821015611fb857611fb761200b565b5b828203905092915050565b6000611fce82611fe1565b9050919050565b60008115159050919050565b600073ffffffffffffffffffffffffffffffffffffffff82169050919050565b6000819050919050565b7f4e487b7100000000000000000000000000000000000000000000000000000000600052601160045260246000fd5b7f4e487b7100000000000000000000000000000000000000000000000000000000600052601260045260246000fd5b61207281611fc3565b811461207d57600080fd5b50565b61208981611fd5565b811461209457600080fd5b50565b6120a081612001565b81146120ab57600080fd5b5056fea2646970667358221220dc87a4a27e1f33c24a9e8d335f307d99ad9851dae15ef2f60e2ecec4fd0e1a0464736f6c63430008000033",
  "immutableReferences": {},
  "source": "// SPDX-License-Identifier: MIT\n\npragma solidity ^0.8.0;\n\nimport \"openzeppelin-solidity/contracts/utils/math/SafeMath.sol\";\nimport \"./Token.sol\";\n\n/**\n * The Exchange contract\n */\ncontract Exchange {\n\tusing SafeMath for uint;\n\n\t// Variables\n  address public feeAccount; // The account that receives exchange fees\n  uint256 public feePercent; // Fee percentage\n  address constant ETHER = address(0); // store Ether in tokens mapping with blank address\n  mapping (address => mapping (address => uint256)) public tokens;\n  mapping (uint256 => _Order) public orders;\n  uint256 public orderCount;\n  mapping (uint256 => bool) public orderCancelled;\n  mapping (uint256 => bool) public orderFilled;\n  \n\n  // Events\n  event Deposit(address indexed _token, address indexed _user, uint256 _amount, uint256 _balance);\n  event Withdraw(address indexed _token, address indexed _user, uint256 _amount, uint256 _balance);\n  event Order(uint256 _id, address _user, address _tokenGet, uint256 _amountGet, address _tokenGive, uint256 _amountGive, uint256 _timestamp);\n  event Cancel(uint256 _id, address _user, address _tokenGet, uint256 _amountGet, address _tokenGive, uint256 _amountGive, uint256 _timestamp);\n  event Trade(uint256 _id, address _user, address _tokenGet, uint256 _amountGet, address _tokenGive, uint256 _amountGive, uint256 _feeAmount, address _userFill, uint256 _timestamp);\n  \n\n  // Structs\n  struct _Order {\n  \tuint256 id;\n  \taddress user;\n  \taddress tokenGet;\n  \tuint256 amountGet;\n  \taddress tokenGive;\n  \tuint256 amountGive;\n  \tuint256 timestamp;  \t\n  }  \n  \n  constructor(address _feeAccount, uint256 _feePercent) {\n    feeAccount = _feeAccount;\n    feePercent = _feePercent;\n  }\n\n  // Fallback: reverts if Ether is sent to this smart contract by mistake\n  fallback() external {\n  \trevert();\n  }\n  \n  function depositEther() payable public {\n  \ttokens[ETHER][msg.sender] = tokens[ETHER][msg.sender].add(msg.value);\n  \temit Deposit(ETHER, msg.sender, msg.value, tokens[ETHER][msg.sender]);\n  }\n\n  function withdrawEther(uint256 _amount) public {\n  \trequire(tokens[ETHER][msg.sender] >= _amount);\n  \ttokens[ETHER][msg.sender] = tokens[ETHER][msg.sender].sub(_amount);\n  \tpayable(msg.sender).transfer(_amount);\n  \temit Withdraw(ETHER, msg.sender, _amount, tokens[ETHER][msg.sender]);\t\n  }\n\n  function depositToken(address _token, uint256 _amount) public {\n  \trequire(_token != ETHER);\n  \trequire(Token(_token).transferFrom(msg.sender, address(this), _amount));\n  \ttokens[_token][msg.sender] = tokens[_token][msg.sender].add(_amount);\n  \temit Deposit(_token, msg.sender, _amount, tokens[_token][msg.sender]);\n  }\n  \n  function withdrawToken(address _token, uint256 _amount) public {\n  \trequire(_token != ETHER);\n  \trequire(tokens[_token][msg.sender] >= _amount);\n  \trequire(Token(_token).transfer(msg.sender, _amount));\n  \ttokens[_token][msg.sender] = tokens[_token][msg.sender].sub(_amount);\n\t\temit Withdraw(_token, msg.sender, _amount, tokens[_token][msg.sender]);\n  }\n\n  function balanceOf(address _token, address _user) public view returns(uint256) {\n  \treturn tokens[_token][_user];\n  }\n\n  function makeOrder(address _tokenGet, uint256 _amountGet, address _tokenGive, uint256 _amountGive) public {\n  \torderCount = orderCount.add(1);\n  \tuint256 timestamp = block.timestamp;\n  \torders[orderCount] = _Order(orderCount, msg.sender, _tokenGet, _amountGet, _tokenGive, _amountGive, timestamp);\n  \temit Order(orderCount, msg.sender, _tokenGet, _amountGet, _tokenGive, _amountGive, timestamp);\n  }\n\n  function cancelOrder(uint256 _id) public {\n  \t_Order storage _order = orders[_id];\n  \trequire(address(_order.user) == msg.sender);\n  \trequire(_order.id == _id);\n  \torderCancelled[_id] = true;\n  \temit Cancel(_order.id, msg.sender, _order.tokenGet, _order.amountGet, _order.tokenGive, _order.amountGive, block.timestamp);\n  }\n\n  function fillOrder(uint256 _id) public {\n  \trequire(_id > 0 && _id <= orderCount);\n  \trequire(!orderFilled[_id]);\n  \trequire(!orderCancelled[_id]);\n  \t_Order storage _order = orders[_id];\n  \t_trade(_order.id, _order.user, _order.tokenGet, _order.amountGet, _order.tokenGive, _order.amountGive);\n  \torderFilled[_order.id] = true;\n  }\n  \n  function _trade(uint256 _id, address _user, address _tokenGet, uint256 _amountGet, address _tokenGive, uint256 _amountGive) internal {\n  \tuint256 _feeAmount = _amountGive.mul(feePercent).div(100);\n  \ttokens[_tokenGet][msg.sender] = tokens[_tokenGet][msg.sender].sub(_amountGet.add(_feeAmount));\n  \ttokens[_tokenGet][_user] = tokens[_tokenGet][_user].add(_amountGet);\n  \ttokens[_tokenGet][feeAccount] = tokens[_tokenGet][feeAccount].add(_feeAmount);\n  \ttokens[_tokenGive][_user] = tokens[_tokenGive][_user].sub(_amountGive);\n  \ttokens[_tokenGive][msg.sender] = tokens[_tokenGive][msg.sender].add(_amountGive);\n  \temit Trade(_id, _user, _tokenGet, _amountGet, _tokenGive, _amountGive, _feeAmount, msg.sender, block.timestamp);\n  }\n  \n}\n",
  "sourcePath": "/home/fmauro/Workspace/blockchain/capstone/src/contracts/Exchange.sol",
  "compiler": {
    "name": "solc",
    "version": "0.8.0+commit.c7dfd78e.Emscripten.clang"
  },
  "schemaVersion": "3.4.1",
  "updatedAt": "2021-08-10T20:38:28.899Z",
  "networkType": "ethereum",
  "devdoc": {
    "kind": "dev",
    "methods": {},
    "version": 1
  },
  "userdoc": {
    "kind": "user",
    "methods": {},
    "notice": "The Exchange contract",
    "version": 1
  }
}