{
  "contractName": "Exchange",
  "abi": [
    {
      "inputs": [
        {
          "internalType": "address",
          "name": "_feeAccount",
          "type": "address"
        },
        {
          "internalType": "uint256",
          "name": "_feePercent",
          "type": "uint256"
        }
      ],
      "stateMutability": "nonpayable",
      "type": "constructor"
    },
    {
      "anonymous": false,
      "inputs": [
        {
          "indexed": true,
          "internalType": "address",
          "name": "_token",
          "type": "address"
        },
        {
          "indexed": true,
          "internalType": "address",
          "name": "_user",
          "type": "address"
        },
        {
          "indexed": false,
          "internalType": "uint256",
          "name": "_amount",
          "type": "uint256"
        },
        {
          "indexed": false,
          "internalType": "uint256",
          "name": "_balance",
          "type": "uint256"
        }
      ],
      "name": "Deposit",
      "type": "event"
    },
    {
      "anonymous": false,
      "inputs": [
        {
          "indexed": false,
          "internalType": "uint256",
          "name": "_id",
          "type": "uint256"
        },
        {
          "indexed": false,
          "internalType": "address",
          "name": "_user",
          "type": "address"
        },
        {
          "indexed": false,
          "internalType": "address",
          "name": "_tokenGet",
          "type": "address"
        },
        {
          "indexed": false,
          "internalType": "uint256",
          "name": "_amountGet",
          "type": "uint256"
        },
        {
          "indexed": false,
          "internalType": "address",
          "name": "_tokenGive",
          "type": "address"
        },
        {
          "indexed": false,
          "internalType": "uint256",
          "name": "_amountGive",
          "type": "uint256"
        },
        {
          "indexed": false,
          "internalType": "uint256",
          "name": "_timestamp",
          "type": "uint256"
        }
      ],
      "name": "Order",
      "type": "event"
    },
    {
      "anonymous": false,
      "inputs": [
        {
          "indexed": true,
          "internalType": "address",
          "name": "_token",
          "type": "address"
        },
        {
          "indexed": true,
          "internalType": "address",
          "name": "_user",
          "type": "address"
        },
        {
          "indexed": false,
          "internalType": "uint256",
          "name": "_amount",
          "type": "uint256"
        },
        {
          "indexed": false,
          "internalType": "uint256",
          "name": "_balance",
          "type": "uint256"
        }
      ],
      "name": "Withdraw",
      "type": "event"
    },
    {
      "stateMutability": "nonpayable",
      "type": "fallback"
    },
    {
      "inputs": [],
      "name": "feeAccount",
      "outputs": [
        {
          "internalType": "address",
          "name": "",
          "type": "address"
        }
      ],
      "stateMutability": "view",
      "type": "function"
    },
    {
      "inputs": [],
      "name": "feePercent",
      "outputs": [
        {
          "internalType": "uint256",
          "name": "",
          "type": "uint256"
        }
      ],
      "stateMutability": "view",
      "type": "function"
    },
    {
      "inputs": [],
      "name": "orderCount",
      "outputs": [
        {
          "internalType": "uint256",
          "name": "",
          "type": "uint256"
        }
      ],
      "stateMutability": "view",
      "type": "function"
    },
    {
      "inputs": [
        {
          "internalType": "uint256",
          "name": "",
          "type": "uint256"
        }
      ],
      "name": "orders",
      "outputs": [
        {
          "internalType": "uint256",
          "name": "id",
          "type": "uint256"
        },
        {
          "internalType": "address",
          "name": "user",
          "type": "address"
        },
        {
          "internalType": "address",
          "name": "tokenGet",
          "type": "address"
        },
        {
          "internalType": "uint256",
          "name": "amountGet",
          "type": "uint256"
        },
        {
          "internalType": "address",
          "name": "tokenGive",
          "type": "address"
        },
        {
          "internalType": "uint256",
          "name": "amountGive",
          "type": "uint256"
        },
        {
          "internalType": "uint256",
          "name": "timestamp",
          "type": "uint256"
        }
      ],
      "stateMutability": "view",
      "type": "function"
    },
    {
      "inputs": [
        {
          "internalType": "address",
          "name": "",
          "type": "address"
        },
        {
          "internalType": "address",
          "name": "",
          "type": "address"
        }
      ],
      "name": "tokens",
      "outputs": [
        {
          "internalType": "uint256",
          "name": "",
          "type": "uint256"
        }
      ],
      "stateMutability": "view",
      "type": "function"
    },
    {
      "inputs": [],
      "name": "depositEther",
      "outputs": [],
      "stateMutability": "payable",
      "type": "function"
    },
    {
      "inputs": [
        {
          "internalType": "uint256",
          "name": "_amount",
          "type": "uint256"
        }
      ],
      "name": "withdrawEther",
      "outputs": [],
      "stateMutability": "nonpayable",
      "type": "function"
    },
    {
      "inputs": [
        {
          "internalType": "address",
          "name": "_token",
          "type": "address"
        },
        {
          "internalType": "uint256",
          "name": "_amount",
          "type": "uint256"
        }
      ],
      "name": "depositToken",
      "outputs": [],
      "stateMutability": "nonpayable",
      "type": "function"
    },
    {
      "inputs": [
        {
          "internalType": "address",
          "name": "_token",
          "type": "address"
        },
        {
          "internalType": "uint256",
          "name": "_amount",
          "type": "uint256"
        }
      ],
      "name": "withdrawToken",
      "outputs": [],
      "stateMutability": "nonpayable",
      "type": "function"
    },
    {
      "inputs": [
        {
          "internalType": "address",
          "name": "_token",
          "type": "address"
        },
        {
          "internalType": "address",
          "name": "_user",
          "type": "address"
        }
      ],
      "name": "balanceOf",
      "outputs": [
        {
          "internalType": "uint256",
          "name": "",
          "type": "uint256"
        }
      ],
      "stateMutability": "view",
      "type": "function"
    },
    {
      "inputs": [
        {
          "internalType": "address",
          "name": "_tokenGet",
          "type": "address"
        },
        {
          "internalType": "uint256",
          "name": "_amountGet",
          "type": "uint256"
        },
        {
          "internalType": "address",
          "name": "_tokenGive",
          "type": "address"
        },
        {
          "internalType": "uint256",
          "name": "_amountGive",
          "type": "uint256"
        }
      ],
      "name": "makeOrder",
      "outputs": [],
      "stateMutability": "nonpayable",
      "type": "function"
    }
  ],
  "bytecode": "0x60806040523480156200001157600080fd5b50604051620016bf380380620016bf8339818101604052810190620000379190620000b4565b816000806101000a81548173ffffffffffffffffffffffffffffffffffffffff021916908373ffffffffffffffffffffffffffffffffffffffff16021790555080600181905550505062000167565b600081519050620000978162000133565b92915050565b600081519050620000ae816200014d565b92915050565b60008060408385031215620000c857600080fd5b6000620000d88582860162000086565b9250506020620000eb858286016200009d565b9150509250929050565b6000620001028262000109565b9050919050565b600073ffffffffffffffffffffffffffffffffffffffff82169050919050565b6000819050919050565b6200013e81620000f5565b81146200014a57600080fd5b50565b620001588162000129565b81146200016457600080fd5b50565b61154880620001776000396000f3fe6080604052600436106100a05760003560e01c80637fd6f15c116100645780637fd6f15c1461019857806398ea5fca146101c35780639a5c90aa146101cd5780639e281a98146101f6578063a85c38ef1461021f578063f7888aec14610262576100a1565b80632453ffa8146100b3578063338b5dea146100de5780633bed33ce14610107578063508493bc1461013057806365e17c9d1461016d576100a1565b5b3480156100ad57600080fd5b50600080fd5b3480156100bf57600080fd5b506100c861029f565b6040516100d59190611319565b60405180910390f35b3480156100ea57600080fd5b506101056004803603810190610100919061118f565b6102a5565b005b34801561011357600080fd5b5061012e60048036038101906101299190611257565b61056d565b005b34801561013c57600080fd5b5061015760048036038101906101529190611153565b610833565b6040516101649190611319565b60405180910390f35b34801561017957600080fd5b50610182610858565b60405161018f919061129e565b60405180910390f35b3480156101a457600080fd5b506101ad61087c565b6040516101ba9190611319565b60405180910390f35b6101cb610882565b005b3480156101d957600080fd5b506101f460048036038101906101ef91906111cb565b610a77565b005b34801561020257600080fd5b5061021d6004803603810190610218919061118f565b610c70565b005b34801561022b57600080fd5b5061024660048036038101906102419190611257565b610fbf565b6040516102599796959493929190611334565b60405180910390f35b34801561026e57600080fd5b5061028960048036038101906102849190611153565b611061565b6040516102969190611319565b60405180910390f35b60045481565b600073ffffffffffffffffffffffffffffffffffffffff168273ffffffffffffffffffffffffffffffffffffffff1614156102df57600080fd5b8173ffffffffffffffffffffffffffffffffffffffff166323b872dd3330846040518463ffffffff1660e01b815260040161031c939291906112b9565b602060405180830381600087803b15801561033657600080fd5b505af115801561034a573d6000803e3d6000fd5b505050506040513d601f19601f8201168201806040525081019061036e919061122e565b61037757600080fd5b61040681600260008573ffffffffffffffffffffffffffffffffffffffff1673ffffffffffffffffffffffffffffffffffffffff16815260200190815260200160002060003373ffffffffffffffffffffffffffffffffffffffff1673ffffffffffffffffffffffffffffffffffffffff168152602001908152602001600020546110e890919063ffffffff16565b600260008473ffffffffffffffffffffffffffffffffffffffff1673ffffffffffffffffffffffffffffffffffffffff16815260200190815260200160002060003373ffffffffffffffffffffffffffffffffffffffff1673ffffffffffffffffffffffffffffffffffffffff168152602001908152602001600020819055503373ffffffffffffffffffffffffffffffffffffffff168273ffffffffffffffffffffffffffffffffffffffff167fdcbc1c05240f31ff3ad067ef1ee35ce4997762752e3a095284754544f4c709d783600260008773ffffffffffffffffffffffffffffffffffffffff1673ffffffffffffffffffffffffffffffffffffffff16815260200190815260200160002060003373ffffffffffffffffffffffffffffffffffffffff1673ffffffffffffffffffffffffffffffffffffffff168152602001908152602001600020546040516105619291906113a3565b60405180910390a35050565b80600260008073ffffffffffffffffffffffffffffffffffffffff1673ffffffffffffffffffffffffffffffffffffffff16815260200190815260200160002060003373ffffffffffffffffffffffffffffffffffffffff1673ffffffffffffffffffffffffffffffffffffffff1681526020019081526020016000205410156105f657600080fd5b61068581600260008073ffffffffffffffffffffffffffffffffffffffff1673ffffffffffffffffffffffffffffffffffffffff16815260200190815260200160002060003373ffffffffffffffffffffffffffffffffffffffff1673ffffffffffffffffffffffffffffffffffffffff168152602001908152602001600020546110fe90919063ffffffff16565b600260008073ffffffffffffffffffffffffffffffffffffffff1673ffffffffffffffffffffffffffffffffffffffff16815260200190815260200160002060003373ffffffffffffffffffffffffffffffffffffffff1673ffffffffffffffffffffffffffffffffffffffff168152602001908152602001600020819055503373ffffffffffffffffffffffffffffffffffffffff166108fc829081150290604051600060405180830381858888f1935050505015801561074b573d6000803e3d6000fd5b503373ffffffffffffffffffffffffffffffffffffffff16600073ffffffffffffffffffffffffffffffffffffffff167ff341246adaac6f497bc2a656f546ab9e182111d630394f0c57c710a59a2cb56783600260008073ffffffffffffffffffffffffffffffffffffffff1673ffffffffffffffffffffffffffffffffffffffff16815260200190815260200160002060003373ffffffffffffffffffffffffffffffffffffffff1673ffffffffffffffffffffffffffffffffffffffff168152602001908152602001600020546040516108289291906113a3565b60405180910390a350565b6002602052816000526040600020602052806000526040600020600091509150505481565b60008054906101000a900473ffffffffffffffffffffffffffffffffffffffff1681565b60015481565b61091134600260008073ffffffffffffffffffffffffffffffffffffffff1673ffffffffffffffffffffffffffffffffffffffff16815260200190815260200160002060003373ffffffffffffffffffffffffffffffffffffffff1673ffffffffffffffffffffffffffffffffffffffff168152602001908152602001600020546110e890919063ffffffff16565b600260008073ffffffffffffffffffffffffffffffffffffffff1673ffffffffffffffffffffffffffffffffffffffff16815260200190815260200160002060003373ffffffffffffffffffffffffffffffffffffffff1673ffffffffffffffffffffffffffffffffffffffff168152602001908152602001600020819055503373ffffffffffffffffffffffffffffffffffffffff16600073ffffffffffffffffffffffffffffffffffffffff167fdcbc1c05240f31ff3ad067ef1ee35ce4997762752e3a095284754544f4c709d734600260008073ffffffffffffffffffffffffffffffffffffffff1673ffffffffffffffffffffffffffffffffffffffff16815260200190815260200160002060003373ffffffffffffffffffffffffffffffffffffffff1673ffffffffffffffffffffffffffffffffffffffff16815260200190815260200160002054604051610a6d9291906113a3565b60405180910390a3565b610a8d60016004546110e890919063ffffffff16565b60048190555060004290506040518060e0016040528060045481526020013373ffffffffffffffffffffffffffffffffffffffff1681526020018673ffffffffffffffffffffffffffffffffffffffff1681526020018581526020018473ffffffffffffffffffffffffffffffffffffffff168152602001838152602001828152506003600060045481526020019081526020016000206000820151816000015560208201518160010160006101000a81548173ffffffffffffffffffffffffffffffffffffffff021916908373ffffffffffffffffffffffffffffffffffffffff16021790555060408201518160020160006101000a81548173ffffffffffffffffffffffffffffffffffffffff021916908373ffffffffffffffffffffffffffffffffffffffff1602179055506060820151816003015560808201518160040160006101000a81548173ffffffffffffffffffffffffffffffffffffffff021916908373ffffffffffffffffffffffffffffffffffffffff16021790555060a0820151816005015560c082015181600601559050507f9d33853d43e3607b4cc01fdc78338ff2dca6fef7db9232dae6d3eb55fbc3b109600454338787878787604051610c619796959493929190611334565b60405180910390a15050505050565b600073ffffffffffffffffffffffffffffffffffffffff168273ffffffffffffffffffffffffffffffffffffffff161415610caa57600080fd5b80600260008473ffffffffffffffffffffffffffffffffffffffff1673ffffffffffffffffffffffffffffffffffffffff16815260200190815260200160002060003373ffffffffffffffffffffffffffffffffffffffff1673ffffffffffffffffffffffffffffffffffffffff168152602001908152602001600020541015610d3357600080fd5b8173ffffffffffffffffffffffffffffffffffffffff1663a9059cbb33836040518363ffffffff1660e01b8152600401610d6e9291906112f0565b602060405180830381600087803b158015610d8857600080fd5b505af1158015610d9c573d6000803e3d6000fd5b505050506040513d601f19601f82011682018060405250810190610dc0919061122e565b610dc957600080fd5b610e5881600260008573ffffffffffffffffffffffffffffffffffffffff1673ffffffffffffffffffffffffffffffffffffffff16815260200190815260200160002060003373ffffffffffffffffffffffffffffffffffffffff1673ffffffffffffffffffffffffffffffffffffffff168152602001908152602001600020546110fe90919063ffffffff16565b600260008473ffffffffffffffffffffffffffffffffffffffff1673ffffffffffffffffffffffffffffffffffffffff16815260200190815260200160002060003373ffffffffffffffffffffffffffffffffffffffff1673ffffffffffffffffffffffffffffffffffffffff168152602001908152602001600020819055503373ffffffffffffffffffffffffffffffffffffffff168273ffffffffffffffffffffffffffffffffffffffff167ff341246adaac6f497bc2a656f546ab9e182111d630394f0c57c710a59a2cb56783600260008773ffffffffffffffffffffffffffffffffffffffff1673ffffffffffffffffffffffffffffffffffffffff16815260200190815260200160002060003373ffffffffffffffffffffffffffffffffffffffff1673ffffffffffffffffffffffffffffffffffffffff16815260200190815260200160002054604051610fb39291906113a3565b60405180910390a35050565b60036020528060005260406000206000915090508060000154908060010160009054906101000a900473ffffffffffffffffffffffffffffffffffffffff16908060020160009054906101000a900473ffffffffffffffffffffffffffffffffffffffff16908060030154908060040160009054906101000a900473ffffffffffffffffffffffffffffffffffffffff16908060050154908060060154905087565b6000600260008473ffffffffffffffffffffffffffffffffffffffff1673ffffffffffffffffffffffffffffffffffffffff16815260200190815260200160002060008373ffffffffffffffffffffffffffffffffffffffff1673ffffffffffffffffffffffffffffffffffffffff16815260200190815260200160002054905092915050565b600081836110f691906113cc565b905092915050565b6000818361110c9190611422565b905092915050565b600081359050611123816114cd565b92915050565b600081519050611138816114e4565b92915050565b60008135905061114d816114fb565b92915050565b6000806040838503121561116657600080fd5b600061117485828601611114565b925050602061118585828601611114565b9150509250929050565b600080604083850312156111a257600080fd5b60006111b085828601611114565b92505060206111c18582860161113e565b9150509250929050565b600080600080608085870312156111e157600080fd5b60006111ef87828801611114565b94505060206112008782880161113e565b935050604061121187828801611114565b92505060606112228782880161113e565b91505092959194509250565b60006020828403121561124057600080fd5b600061124e84828501611129565b91505092915050565b60006020828403121561126957600080fd5b60006112778482850161113e565b91505092915050565b61128981611456565b82525050565b61129881611494565b82525050565b60006020820190506112b36000830184611280565b92915050565b60006060820190506112ce6000830186611280565b6112db6020830185611280565b6112e8604083018461128f565b949350505050565b60006040820190506113056000830185611280565b611312602083018461128f565b9392505050565b600060208201905061132e600083018461128f565b92915050565b600060e082019050611349600083018a61128f565b6113566020830189611280565b6113636040830188611280565b611370606083018761128f565b61137d6080830186611280565b61138a60a083018561128f565b61139760c083018461128f565b98975050505050505050565b60006040820190506113b8600083018561128f565b6113c5602083018461128f565b9392505050565b60006113d782611494565b91506113e283611494565b9250827fffffffffffffffffffffffffffffffffffffffffffffffffffffffffffffffff038211156114175761141661149e565b5b828201905092915050565b600061142d82611494565b915061143883611494565b92508282101561144b5761144a61149e565b5b828203905092915050565b600061146182611474565b9050919050565b60008115159050919050565b600073ffffffffffffffffffffffffffffffffffffffff82169050919050565b6000819050919050565b7f4e487b7100000000000000000000000000000000000000000000000000000000600052601160045260246000fd5b6114d681611456565b81146114e157600080fd5b50565b6114ed81611468565b81146114f857600080fd5b50565b61150481611494565b811461150f57600080fd5b5056fea264697066735822122019218a0cf43cbbf8334c3ed2f5f13fe9a998c70fe8a7c8c32fef7770c0b6bc6064736f6c63430008000033",
  "immutableReferences": {},
  "source": "// SPDX-License-Identifier: MIT\n\n// Deposit & Withdraw Funds\n// Manage Orders - Make or Cancel\n// Handle Trades - Charge fees\n\npragma solidity ^0.8.0;\n\nimport \"openzeppelin-solidity/contracts/utils/math/SafeMath.sol\";\nimport \"./Token.sol\";\n\n/**\n * The Exchange contract\n */\ncontract Exchange {\n\tusing SafeMath for uint;\n\n\t// Variables\n  address public feeAccount; // The account that receives exchange fees\n  uint256 public feePercent; // Fee percentage\n  address constant ETHER = address(0); // store Ether in tokens mapping with blank address\n  mapping (address => mapping (address => uint256)) public tokens;\n  mapping (uint256 => _Order) public orders;\n  uint256 public orderCount;\n\n  // Events\n  event Deposit(address indexed _token, address indexed _user, uint256 _amount, uint256 _balance);\n  event Withdraw(address indexed _token, address indexed _user, uint256 _amount, uint256 _balance);\n  event Order(uint256 _id, address _user, address _tokenGet, uint256 _amountGet, address _tokenGive, uint256 _amountGive, uint256 _timestamp);\n\n  // Structs\n  struct _Order {\n  \tuint256 id;\n  \taddress user;\n  \taddress tokenGet;\n  \tuint256 amountGet;\n  \taddress tokenGive;\n  \tuint256 amountGive;\n  \tuint256 timestamp;  \t\n  }  \n  \n  constructor(address _feeAccount, uint256 _feePercent) {\n    feeAccount = _feeAccount;\n    feePercent = _feePercent;\n  }\n\n  // Fallback: reverts if Ether is sent to this smart contract by mistake\n  fallback() external {\n  \trevert();\n  }\n  \n  function depositEther() payable public {\n  \ttokens[ETHER][msg.sender] = tokens[ETHER][msg.sender].add(msg.value);\n  \temit Deposit(ETHER, msg.sender, msg.value, tokens[ETHER][msg.sender]);\n  }\n\n  function withdrawEther(uint256 _amount) public {\n  \trequire(tokens[ETHER][msg.sender] >= _amount);\n  \ttokens[ETHER][msg.sender] = tokens[ETHER][msg.sender].sub(_amount);\n  \tpayable(msg.sender).transfer(_amount);\n  \temit Withdraw(ETHER, msg.sender, _amount, tokens[ETHER][msg.sender]);\t\n  }\n\n  function depositToken(address _token, uint256 _amount) public {\n  \trequire(_token != ETHER);\n  \trequire(Token(_token).transferFrom(msg.sender, address(this), _amount));\n  \ttokens[_token][msg.sender] = tokens[_token][msg.sender].add(_amount);\n  \temit Deposit(_token, msg.sender, _amount, tokens[_token][msg.sender]);\n  }\n  \n  function withdrawToken(address _token, uint256 _amount) public {\n  \trequire(_token != ETHER);\n  \trequire(tokens[_token][msg.sender] >= _amount);\n  \trequire(Token(_token).transfer(msg.sender, _amount));\n  \ttokens[_token][msg.sender] = tokens[_token][msg.sender].sub(_amount);\n\t\temit Withdraw(_token, msg.sender, _amount, tokens[_token][msg.sender]);\n  }\n\n  function balanceOf(address _token, address _user) public view returns(uint256) {\n  \treturn tokens[_token][_user];\n  }\n\n  function makeOrder(address _tokenGet, uint256 _amountGet, address _tokenGive, uint256 _amountGive) public {\n  \torderCount = orderCount.add(1);\n  \tuint256 timestamp = block.timestamp;\n  \torders[orderCount] = _Order(orderCount, msg.sender, _tokenGet, _amountGet, _tokenGive, _amountGive, timestamp);\n  \temit Order(orderCount, msg.sender, _tokenGet, _amountGet, _tokenGive, _amountGive, timestamp);\n  }\n  \n}\n\n// TODO :\n// [X] Set the fee account\n// [X] Deposit Ether\n// [X] Withdraw Ether\n// [X] Deposit Token\n// [X] Withdraw Token\n// [X] Check Balances\n// [ ] Make Order\n// [ ] Fill Order\n// [ ] Cancel Order\n// [ ] Charge fees",
  "sourcePath": "/home/fmauro/Workspace/blockchain/capstone/src/contracts/Exchange.sol",
  "compiler": {
    "name": "solc",
    "version": "0.8.0+commit.c7dfd78e.Emscripten.clang"
  },
  "schemaVersion": "3.4.1",
  "updatedAt": "2021-08-04T15:42:55.433Z",
  "devdoc": {
    "kind": "dev",
    "methods": {},
    "version": 1
  },
  "userdoc": {
    "kind": "user",
    "methods": {},
    "notice": "The Exchange contract",
    "version": 1
  }
}