{
  "contractName": "Exchange",
  "abi": [
    {
      "inputs": [
        {
          "internalType": "address",
          "name": "_feeAccount",
          "type": "address"
        },
        {
          "internalType": "uint256",
          "name": "_feePercent",
          "type": "uint256"
        }
      ],
      "stateMutability": "nonpayable",
      "type": "constructor"
    },
    {
      "anonymous": false,
      "inputs": [
        {
          "indexed": true,
          "internalType": "address",
          "name": "_token",
          "type": "address"
        },
        {
          "indexed": true,
          "internalType": "address",
          "name": "_user",
          "type": "address"
        },
        {
          "indexed": false,
          "internalType": "uint256",
          "name": "_amount",
          "type": "uint256"
        },
        {
          "indexed": false,
          "internalType": "uint256",
          "name": "_balance",
          "type": "uint256"
        }
      ],
      "name": "Deposit",
      "type": "event"
    },
    {
      "anonymous": false,
      "inputs": [
        {
          "indexed": true,
          "internalType": "address",
          "name": "_token",
          "type": "address"
        },
        {
          "indexed": true,
          "internalType": "address",
          "name": "_user",
          "type": "address"
        },
        {
          "indexed": false,
          "internalType": "uint256",
          "name": "_amount",
          "type": "uint256"
        },
        {
          "indexed": false,
          "internalType": "uint256",
          "name": "_balance",
          "type": "uint256"
        }
      ],
      "name": "Withdraw",
      "type": "event"
    },
    {
      "stateMutability": "nonpayable",
      "type": "fallback"
    },
    {
      "inputs": [],
      "name": "feeAccount",
      "outputs": [
        {
          "internalType": "address",
          "name": "",
          "type": "address"
        }
      ],
      "stateMutability": "view",
      "type": "function"
    },
    {
      "inputs": [],
      "name": "feePercent",
      "outputs": [
        {
          "internalType": "uint256",
          "name": "",
          "type": "uint256"
        }
      ],
      "stateMutability": "view",
      "type": "function"
    },
    {
      "inputs": [
        {
          "internalType": "address",
          "name": "",
          "type": "address"
        },
        {
          "internalType": "address",
          "name": "",
          "type": "address"
        }
      ],
      "name": "tokens",
      "outputs": [
        {
          "internalType": "uint256",
          "name": "",
          "type": "uint256"
        }
      ],
      "stateMutability": "view",
      "type": "function"
    },
    {
      "inputs": [],
      "name": "depositEther",
      "outputs": [],
      "stateMutability": "payable",
      "type": "function"
    },
    {
      "inputs": [
        {
          "internalType": "uint256",
          "name": "_amount",
          "type": "uint256"
        }
      ],
      "name": "withdrawEther",
      "outputs": [],
      "stateMutability": "nonpayable",
      "type": "function"
    },
    {
      "inputs": [
        {
          "internalType": "address",
          "name": "_token",
          "type": "address"
        },
        {
          "internalType": "uint256",
          "name": "_amount",
          "type": "uint256"
        }
      ],
      "name": "depositToken",
      "outputs": [],
      "stateMutability": "nonpayable",
      "type": "function"
    }
  ],
  "bytecode": "0x60806040523480156200001157600080fd5b5060405162000e0938038062000e098339818101604052810190620000379190620000b4565b816000806101000a81548173ffffffffffffffffffffffffffffffffffffffff021916908373ffffffffffffffffffffffffffffffffffffffff16021790555080600181905550505062000167565b600081519050620000978162000133565b92915050565b600081519050620000ae816200014d565b92915050565b60008060408385031215620000c857600080fd5b6000620000d88582860162000086565b9250506020620000eb858286016200009d565b9150509250929050565b6000620001028262000109565b9050919050565b600073ffffffffffffffffffffffffffffffffffffffff82169050919050565b6000819050919050565b6200013e81620000f5565b81146200014a57600080fd5b50565b620001588162000129565b81146200016457600080fd5b50565b610c9280620001776000396000f3fe6080604052600436106100595760003560e01c8063338b5dea1461006c5780633bed33ce14610095578063508493bc146100be57806365e17c9d146100fb5780637fd6f15c1461012657806398ea5fca146101515761005a565b5b34801561006657600080fd5b50600080fd5b34801561007857600080fd5b50610093600480360381019061008e91906109d4565b61015b565b005b3480156100a157600080fd5b506100bc60048036038101906100b79190610a39565b610423565b005b3480156100ca57600080fd5b506100e560048036038101906100e09190610998565b6106e9565b6040516100f29190610ad2565b60405180910390f35b34801561010757600080fd5b5061011061070e565b60405161011d9190610a80565b60405180910390f35b34801561013257600080fd5b5061013b610732565b6040516101489190610ad2565b60405180910390f35b610159610738565b005b600073ffffffffffffffffffffffffffffffffffffffff168273ffffffffffffffffffffffffffffffffffffffff16141561019557600080fd5b8173ffffffffffffffffffffffffffffffffffffffff166323b872dd3330846040518463ffffffff1660e01b81526004016101d293929190610a9b565b602060405180830381600087803b1580156101ec57600080fd5b505af1158015610200573d6000803e3d6000fd5b505050506040513d601f19601f820116820180604052508101906102249190610a10565b61022d57600080fd5b6102bc81600260008573ffffffffffffffffffffffffffffffffffffffff1673ffffffffffffffffffffffffffffffffffffffff16815260200190815260200160002060003373ffffffffffffffffffffffffffffffffffffffff1673ffffffffffffffffffffffffffffffffffffffff1681526020019081526020016000205461092d90919063ffffffff16565b600260008473ffffffffffffffffffffffffffffffffffffffff1673ffffffffffffffffffffffffffffffffffffffff16815260200190815260200160002060003373ffffffffffffffffffffffffffffffffffffffff1673ffffffffffffffffffffffffffffffffffffffff168152602001908152602001600020819055503373ffffffffffffffffffffffffffffffffffffffff168273ffffffffffffffffffffffffffffffffffffffff167fdcbc1c05240f31ff3ad067ef1ee35ce4997762752e3a095284754544f4c709d783600260008773ffffffffffffffffffffffffffffffffffffffff1673ffffffffffffffffffffffffffffffffffffffff16815260200190815260200160002060003373ffffffffffffffffffffffffffffffffffffffff1673ffffffffffffffffffffffffffffffffffffffff16815260200190815260200160002054604051610417929190610aed565b60405180910390a35050565b80600260008073ffffffffffffffffffffffffffffffffffffffff1673ffffffffffffffffffffffffffffffffffffffff16815260200190815260200160002060003373ffffffffffffffffffffffffffffffffffffffff1673ffffffffffffffffffffffffffffffffffffffff1681526020019081526020016000205410156104ac57600080fd5b61053b81600260008073ffffffffffffffffffffffffffffffffffffffff1673ffffffffffffffffffffffffffffffffffffffff16815260200190815260200160002060003373ffffffffffffffffffffffffffffffffffffffff1673ffffffffffffffffffffffffffffffffffffffff1681526020019081526020016000205461094390919063ffffffff16565b600260008073ffffffffffffffffffffffffffffffffffffffff1673ffffffffffffffffffffffffffffffffffffffff16815260200190815260200160002060003373ffffffffffffffffffffffffffffffffffffffff1673ffffffffffffffffffffffffffffffffffffffff168152602001908152602001600020819055503373ffffffffffffffffffffffffffffffffffffffff166108fc829081150290604051600060405180830381858888f19350505050158015610601573d6000803e3d6000fd5b503373ffffffffffffffffffffffffffffffffffffffff16600073ffffffffffffffffffffffffffffffffffffffff167ff341246adaac6f497bc2a656f546ab9e182111d630394f0c57c710a59a2cb56783600260008073ffffffffffffffffffffffffffffffffffffffff1673ffffffffffffffffffffffffffffffffffffffff16815260200190815260200160002060003373ffffffffffffffffffffffffffffffffffffffff1673ffffffffffffffffffffffffffffffffffffffff168152602001908152602001600020546040516106de929190610aed565b60405180910390a350565b6002602052816000526040600020602052806000526040600020600091509150505481565b60008054906101000a900473ffffffffffffffffffffffffffffffffffffffff1681565b60015481565b6107c734600260008073ffffffffffffffffffffffffffffffffffffffff1673ffffffffffffffffffffffffffffffffffffffff16815260200190815260200160002060003373ffffffffffffffffffffffffffffffffffffffff1673ffffffffffffffffffffffffffffffffffffffff1681526020019081526020016000205461092d90919063ffffffff16565b600260008073ffffffffffffffffffffffffffffffffffffffff1673ffffffffffffffffffffffffffffffffffffffff16815260200190815260200160002060003373ffffffffffffffffffffffffffffffffffffffff1673ffffffffffffffffffffffffffffffffffffffff168152602001908152602001600020819055503373ffffffffffffffffffffffffffffffffffffffff16600073ffffffffffffffffffffffffffffffffffffffff167fdcbc1c05240f31ff3ad067ef1ee35ce4997762752e3a095284754544f4c709d734600260008073ffffffffffffffffffffffffffffffffffffffff1673ffffffffffffffffffffffffffffffffffffffff16815260200190815260200160002060003373ffffffffffffffffffffffffffffffffffffffff1673ffffffffffffffffffffffffffffffffffffffff16815260200190815260200160002054604051610923929190610aed565b60405180910390a3565b6000818361093b9190610b16565b905092915050565b600081836109519190610b6c565b905092915050565b60008135905061096881610c17565b92915050565b60008151905061097d81610c2e565b92915050565b60008135905061099281610c45565b92915050565b600080604083850312156109ab57600080fd5b60006109b985828601610959565b92505060206109ca85828601610959565b9150509250929050565b600080604083850312156109e757600080fd5b60006109f585828601610959565b9250506020610a0685828601610983565b9150509250929050565b600060208284031215610a2257600080fd5b6000610a308482850161096e565b91505092915050565b600060208284031215610a4b57600080fd5b6000610a5984828501610983565b91505092915050565b610a6b81610ba0565b82525050565b610a7a81610bde565b82525050565b6000602082019050610a956000830184610a62565b92915050565b6000606082019050610ab06000830186610a62565b610abd6020830185610a62565b610aca6040830184610a71565b949350505050565b6000602082019050610ae76000830184610a71565b92915050565b6000604082019050610b026000830185610a71565b610b0f6020830184610a71565b9392505050565b6000610b2182610bde565b9150610b2c83610bde565b9250827fffffffffffffffffffffffffffffffffffffffffffffffffffffffffffffffff03821115610b6157610b60610be8565b5b828201905092915050565b6000610b7782610bde565b9150610b8283610bde565b925082821015610b9557610b94610be8565b5b828203905092915050565b6000610bab82610bbe565b9050919050565b60008115159050919050565b600073ffffffffffffffffffffffffffffffffffffffff82169050919050565b6000819050919050565b7f4e487b7100000000000000000000000000000000000000000000000000000000600052601160045260246000fd5b610c2081610ba0565b8114610c2b57600080fd5b50565b610c3781610bb2565b8114610c4257600080fd5b50565b610c4e81610bde565b8114610c5957600080fd5b5056fea2646970667358221220d4784a6117879e534105fe02cbfb2735807ea8a82de45f0dd06e0a0cbf86793164736f6c63430008000033",
  "immutableReferences": {},
  "source": "// SPDX-License-Identifier: MIT\n\n// Deposit & Withdraw Funds\n// Manage Orders - Make or Cancel\n// Handle Trades - Charge fees\n\npragma solidity ^0.8.0;\n\nimport \"openzeppelin-solidity/contracts/utils/math/SafeMath.sol\";\nimport \"./Token.sol\";\n\n/**\n * The Exchange contract\n */\ncontract Exchange {\n\tusing SafeMath for uint;\n\n\t// Variables\n  address public feeAccount; // The account that receives exchange fees\n  uint256 public feePercent; // Fee percentage\n  address constant ETHER = address(0); // store Ether in tokens mapping with blank address\n  mapping (address => mapping (address => uint256)) public tokens;\n\n  // Events\n  event Deposit(address indexed _token, address indexed _user, uint256 _amount, uint256 _balance);\n  event Withdraw(address indexed _token, address indexed _user, uint256 _amount, uint256 _balance);\n  \n  constructor(address _feeAccount, uint256 _feePercent) {\n    feeAccount = _feeAccount;\n    feePercent = _feePercent;\n  }\n\n  // Fallback: reverts if Ether is sent to this smart contract by mistake\n  fallback() external {\n  \trevert();\n  }\n  \n  function depositEther() payable public {\n  \ttokens[ETHER][msg.sender] = tokens[ETHER][msg.sender].add(msg.value);\n  \temit Deposit(ETHER, msg.sender, msg.value, tokens[ETHER][msg.sender]);\n  }\n\n  function withdrawEther(uint256 _amount) public {\n  \trequire(tokens[ETHER][msg.sender] >= _amount);\n  \ttokens[ETHER][msg.sender] = tokens[ETHER][msg.sender].sub(_amount);\n  \tpayable(msg.sender).transfer(_amount);\n  \temit Withdraw(ETHER, msg.sender, _amount, tokens[ETHER][msg.sender]);\t\n  }\n  \n\n  function depositToken(address _token, uint256 _amount) public {\n  \trequire(_token != ETHER);\n  \trequire(Token(_token).transferFrom(msg.sender, address(this), _amount));\n  \ttokens[_token][msg.sender] = tokens[_token][msg.sender].add(_amount);\n  \temit Deposit(_token, msg.sender, _amount, tokens[_token][msg.sender]);\n  }\n  \n\n}\n\n// TODO :\n// [X] Set the fee account\n// [X] Deposit Ether\n// [ ] Withdraw Ether\n// [X] Deposit Token\n// [ ] Withdraw Token\n// [ ] Check Balances\n// [ ] Make Order\n// [ ] Fill Order\n// [ ] Cancel Order\n// [ ] Charge fees",
  "sourcePath": "/home/fmauro/Workspace/blockchain/capstone/src/contracts/Exchange.sol",
  "compiler": {
    "name": "solc",
    "version": "0.8.0+commit.c7dfd78e.Emscripten.clang"
  },
  "schemaVersion": "3.4.1",
  "updatedAt": "2021-08-04T14:07:34.181Z",
  "devdoc": {
    "kind": "dev",
    "methods": {},
    "version": 1
  },
  "userdoc": {
    "kind": "user",
    "methods": {},
    "notice": "The Exchange contract",
    "version": 1
  }
}